:100000000C945D000C9485000C9485000C94850084
:100010000C9485000C9485000C9485000C9485004C
:100020000C9485000C9485000C9485000C9485003C
:100030000C9485000C9485000C9485000C9485002C
:100040000C94CF020C9485000C949D020C947702C2
:100050000C9485000C9485000C9485000C9485000C
:100060000C9485000C9485000000000024002700FB
:100070002A0000000000250028002B0004040404CE
:100080000404040402020202020203030303030342
:10009000010204081020408001020408102001021F
:1000A00004081020000000080002010000030407FB
:1000B0000000000000000000C00411241FBECFEFAC
:1000C000D8E0DEBFCDBF11E0A0E0B1E0EEE2FAE0A3
:1000D00002C005900D92AC31B107D9F727E0ACE131
:1000E000B1E001C01D92A43AB207E1F710E0CDE5FE
:1000F000D0E004C02197FE010E940F05CC35D10746
:10010000C9F70E9419030C9415050C94000085E4AE
:1001100080937C0080917A00806480937A00809143
:100120007A0086FDFCCF8091780090917900089547
:10013000AF92BF92CF92DF92EF92FF920F931F93F5
:10014000CF93DF936C017B018B01040F151FEB0133
:100150005E01AE18BF08C017D10759F06991D601EA
:10016000ED91FC910190F081E02DC6010995892B5C
:1001700079F7C501DF91CF911F910F91FF90EF901B
:10018000DF90CF90BF90AF900895FC01538D448DC8
:10019000252F30E0842F90E0821B930B541710F032
:1001A000CF96089501970895FC01918D828D98173F
:1001B00061F0A28DAE0FBF2FB11D5D968C91928D17
:1001C0009F5F9F73928F90E008958FEF9FEF089548
:1001D000FC01918D828D981731F0828DE80FF11D11
:1001E000858D90E008958FEF9FEF0895FC01918D2C
:1001F000228D892F90E0805C9F4F821B91098F7325
:100200009927089587E097E00E94F60021E0892B66
:1002100009F420E0822F089580E090E0892B29F0F6
:100220000E94020181110C9400000895FC01A48D2C
:10023000A80FB92FB11DA35ABF4F2C91848D90E008
:1002400001968F739927848FA689B7892C93A089EB
:10025000B1898C91837080648C93938D848D981375
:1002600006C00288F389E02D80818F7D8083089508
:10027000EF92FF920F931F93CF93DF93EC0181E0F6
:10028000888F9B8D8C8D98131AC0E889F98980819D
:1002900085FF15C09FB7F894EE89FF896083E889D0
:1002A000F98980818370806480839FBF81E090E0C2
:1002B000DF91CF911F910F91FF90EF900895F62E4F
:1002C0000B8D10E00F5F1F4F0F731127E02E8C8DE9
:1002D0008E110CC00FB607FCFACFE889F98980812E
:1002E00085FFF5CFCE010E941601F1CFEB8DEC0F0B
:1002F000FD2FF11DE35AFF4FF0829FB7F8940B8F4B
:10030000EA89FB8980818062CFCFCF93DF93EC01B4
:10031000888D8823B9F0AA89BB89E889F9898C91ED
:1003200085FD03C0808186FD0DC00FB607FCF7CFA9
:100330008C9185FFF2CF808185FFEDCFCE010E94A9
:100340001601E9CFDF91CF910895CF93DF9390E02D
:10035000FC01E057FF4F249184589F4FFC0184918A
:100360008823D1F090E0880F991FFC01E859FF4FD6
:10037000A591B491FC01EE58FF4FC591D491611144
:100380000EC09FB7F8948C91E22FE0958E238C934A
:100390002881E223E8839FBFDF91CF9108958FB733
:1003A000F894EC91E22BEC938FBFF6CF3FB7F89423
:1003B0008091210190912201A0912301B09124010B
:1003C00026B5A89B05C02F3F19F00196A11DB11DB0
:1003D0003FBFBA2FA92F982F8827BC01CD01620FEC
:1003E000711D811D911D42E0660F771F881F991FA7
:1003F0004A95D1F708952FB7F89460911D01709137
:100400001E0180911F01909120012FBF089520911E
:10041000050730910607A9014F5F5F4F509306070C
:10042000409305072B5D3E4FF90180830895FC0141
:1004300001900020E9F73197AF01481B590BBC012F
:1004400087E097E00C9498008F929F92AF92BF92B2
:100450000F931F93CF93DF93CDB7DEB7A1970FB65E
:10046000F894DEBF0FBECDBF19A2423008F44AE0B7
:100470008E010F5D1F4F842E912CB12CA12CA50154
:1004800094010E94ED04E62FB901CA01EA30F4F4A8
:10049000E05DD801EE938D01232B242B252B79F7DA
:1004A00090E080E0109719F0CD010E941702A1960C
:1004B0000FB6F894DEBF0FBECDBFDF91CF911F9175
:1004C0000F91BF90AF909F908F900895E95CE1CF1E
:1004D000CF93DF934AE00E942402EC0182E191E095
:1004E0000E9417028C0F9D1FDF91CF9108951F92DC
:1004F0000F920FB60F9211242F933F934F935F9358
:100500006F937F938F939F93AF93BF93EF93FF93DB
:1005100087E097E00E941601FF91EF91BF91AF91A4
:100520009F918F917F916F915F914F913F912F910B
:100530000F900FBE0F901F9018951F920F920FB63D
:100540000F9211242F938F939F93EF93FF93E0913A
:100550001707F09118078081E0911D07F0911E07A1
:1005600082FD1BC09081809120078F5F8F73209147
:100570002107821741F0E0912007F0E0E95FF84F92
:10058000958F80932007FF91EF919F918F912F91ED
:100590000F900FBE0F901F9018958081F4CF1F927F
:1005A0000F920FB60F9211242F933F938F939F9327
:1005B000AF93BF9380911D0190911E01A0911F01E7
:1005C000B091200130911C0123E0230F2D3758F505
:1005D0000196A11DB11D20931C0180931D019093D4
:1005E0001E01A0931F01B0932001809121019091E1
:1005F0002201A0912301B09124010196A11DB11DFA
:100600008093210190932201A0932301B0932401B0
:10061000BF91AF919F918F913F912F910F900FBEFE
:100620000F901F90189526E8230F0296A11DB11D6B
:10063000D2CF789484B5826084BD84B5816084BD56
:1006400085B5826085BD85B5816085BD80916E0070
:10065000816080936E0010928100809181008260A1
:1006600080938100809181008160809381008091DE
:1006700080008160809380008091B10084608093CD
:10068000B1008091B00081608093B00080917A00C9
:10069000846080937A0080917A00826080937A00EF
:1006A00080917A00816080937A0080917A008068DE
:1006B00080937A001092C100C2E0D0E061E08C2FFC
:1006C0000E94A501FE01EC55FF4F8491FE01E05709
:1006D000FF4F9491FE01E458FF4FE491EE23D9F0CF
:1006E000882359F0833009F4B4C008F0A7C08130E2
:1006F00009F4B5C0823009F4B6C0F0E0EE0FFF1F78
:10070000EE58FF4FA591B4918FB7F894EC91909566
:100710009E239C938FBF2196CA30D10579F660E065
:1007200083E10E94A50160E082E10E94A501E091C1
:100730001707F091180782E08083E0911307F0918A
:1007400014071082E0911507F091160780E180836D
:1007500010921F07E0911B07F0911C0786E0808331
:10076000E0911907F0911A07808180618083E09100
:100770001907F0911A07808188608083E09119073A
:10078000F0911A07808180688083E0911907F091C9
:100790001A0780818F7D80830E94D6014B015C0106
:1007A00088EEC82E83E0D82EE12CF12C0E94D601D1
:1007B000681979098A099B09683E7340810591058A
:1007C000A8F321E0C21AD108E108F10888EE880EEA
:1007D00083E0981EA11CB11CC114D104E104F104F2
:1007E00029F710920607109205070E94FB016093FB
:1007F00001077093020780930307909304070E94F8
:10080000FB010E9468028BB183708BB90E94FB01CF
:10081000C0900107D0900207E0900307F090040712
:100820006C197D098E099F09643F7140810591050E
:1008300038F50E9487000E940702E8CF8730B1F0A8
:100840008830D1F0843009F058CF809180008F7DBE
:1008500003C0809180008F77809380004ECF84B555
:100860008F7784BD4ACF84B58F7DFBCF8091B00058
:100870008F778093B00041CF8091B0008F7DF9CF0A
:100880000E94FB010E9468028BB1837080648BB967
:100890000E94FB01C0900107D0900207E09003077F
:1008A000F09004076C197D098E099F09683E73401A
:1008B0008105910528F40E9487000E940702E8CF75
:1008C0000E94FB010E9468028BB183708BB90E9469
:1008D000FB01C0900107D0900207E0900307F09061
:1008E00004076C197D098E099F096C3D75408105CF
:1008F000910528F40E9487000E940702E8CF0E9419
:10090000FB010E9468028BB1837080688BB90E94E2
:10091000FB01C0900107D0900207E0900307F09020
:1009200004076C197D098E099F09603D7740810598
:10093000910528F40E9487000E940702E8CF85E114
:1009400091E00E94170282E191E00E941702C5E245
:10095000D1E02091050730910607CE0185529140E4
:100960008217930764F4699170E090E080E04AE0B8
:100970000E94240282E191E00E941702EACFFFCF99
:10098000E7E0F7E01382128288EE93E0A0E0B0E0A7
:1009900084839583A683B78384E091E091838083E9
:1009A00085EC90E09587848784EC90E09787868734
:1009B00080EC90E0918B808B81EC90E0938B828B2C
:1009C00082EC90E0958B848B86EC90E0978B868B05
:1009D000118E128E138E148E0895A1E21A2EAA1B68
:1009E000BB1BFD010DC0AA1FBB1FEE1FFF1FA217DF
:1009F000B307E407F50720F0A21BB30BE40BF50BDC
:100A0000661F771F881F991F1A9469F76095709564
:100A1000809590959B01AC01BD01CF010895EE0F2B
:0E0A2000FF1F0590F491E02D0994F894FFCF8C
:100A2E000000000038019800C5008501F600D400D2
:0C0A3E00E8000D0A00646174612C0000E7
:00000001FF
